{
  "_format": "hh-sol-artifact-1",
  "contractName": "LiquidityPool",
  "sourceName": "contracts/LiquidityPool.sol",
  "abi": [
    {
      "inputs": [
        {
          "internalType": "address",
          "name": "_tokenA",
          "type": "address"
        },
        {
          "internalType": "address",
          "name": "_tokenB",
          "type": "address"
        }
      ],
      "stateMutability": "nonpayable",
      "type": "constructor"
    },
    {
      "inputs": [
        {
          "internalType": "uint256",
          "name": "amountA",
          "type": "uint256"
        },
        {
          "internalType": "uint256",
          "name": "amountB",
          "type": "uint256"
        }
      ],
      "name": "addLiquidity",
      "outputs": [],
      "stateMutability": "nonpayable",
      "type": "function"
    },
    {
      "inputs": [
        {
          "internalType": "string",
          "name": "tokenType",
          "type": "string"
        },
        {
          "internalType": "uint256",
          "name": "inputAmount",
          "type": "uint256"
        }
      ],
      "name": "calculateSwapAmount",
      "outputs": [
        {
          "internalType": "uint256",
          "name": "",
          "type": "uint256"
        }
      ],
      "stateMutability": "view",
      "type": "function"
    },
    {
      "inputs": [
        {
          "internalType": "uint256",
          "name": "amount",
          "type": "uint256"
        }
      ],
      "name": "getFee",
      "outputs": [
        {
          "internalType": "uint256",
          "name": "",
          "type": "uint256"
        }
      ],
      "stateMutability": "view",
      "type": "function"
    },
    {
      "inputs": [
        {
          "internalType": "uint256",
          "name": "poolTokens",
          "type": "uint256"
        }
      ],
      "name": "removeLiquidity",
      "outputs": [
        {
          "internalType": "uint256",
          "name": "",
          "type": "uint256"
        },
        {
          "internalType": "uint256",
          "name": "",
          "type": "uint256"
        }
      ],
      "stateMutability": "nonpayable",
      "type": "function"
    },
    {
      "inputs": [
        {
          "internalType": "address",
          "name": "userWallet",
          "type": "address"
        },
        {
          "internalType": "string",
          "name": "tokenFrom",
          "type": "string"
        },
        {
          "internalType": "string",
          "name": "tokenTo",
          "type": "string"
        },
        {
          "internalType": "uint256",
          "name": "amount",
          "type": "uint256"
        }
      ],
      "name": "swap",
      "outputs": [
        {
          "internalType": "uint256",
          "name": "",
          "type": "uint256"
        }
      ],
      "stateMutability": "nonpayable",
      "type": "function"
    },
    {
      "inputs": [],
      "name": "totalSupply",
      "outputs": [
        {
          "internalType": "uint256",
          "name": "",
          "type": "uint256"
        }
      ],
      "stateMutability": "view",
      "type": "function"
    }
  ],
  "bytecode": "0x608060405260646002553480156200001657600080fd5b5060405162001fb538038062001fb583398181016040528101906200003c9190620001dc565b600073ffffffffffffffffffffffffffffffffffffffff168273ffffffffffffffffffffffffffffffffffffffff1614158015620000a75750600073ffffffffffffffffffffffffffffffffffffffff168173ffffffffffffffffffffffffffffffffffffffff1614155b620000e9576040517f08c379a0000000000000000000000000000000000000000000000000000000008152600401620000e09062000284565b60405180910390fd5b816000806101000a81548173ffffffffffffffffffffffffffffffffffffffff021916908373ffffffffffffffffffffffffffffffffffffffff16021790555080600160006101000a81548173ffffffffffffffffffffffffffffffffffffffff021916908373ffffffffffffffffffffffffffffffffffffffff1602179055505050620002a6565b600080fd5b600073ffffffffffffffffffffffffffffffffffffffff82169050919050565b6000620001a48262000177565b9050919050565b620001b68162000197565b8114620001c257600080fd5b50565b600081519050620001d681620001ab565b92915050565b60008060408385031215620001f657620001f562000172565b5b60006200020685828601620001c5565b92505060206200021985828601620001c5565b9150509250929050565b600082825260208201905092915050565b7f496e76616c696420746f6b656e20616464726573730000000000000000000000600082015250565b60006200026c60158362000223565b9150620002798262000234565b602082019050919050565b600060208201905081810360008301526200029f816200025d565b9050919050565b611cff80620002b66000396000f3fe608060405234801561001057600080fd5b50600436106100625760003560e01c806318160ddd146100675780637cabc1d31461008557806390b0b721146100b55780639c8f9f23146100e55780639cd441da14610116578063fcee45f414610132575b600080fd5b61006f610162565b60405161007c91906110bf565b60405180910390f35b61009f600480360381019061009a9190611260565b610168565b6040516100ac91906110bf565b60405180910390f35b6100cf60048036038101906100ca919061131a565b61040f565b6040516100dc91906110bf565b60405180910390f35b6100ff60048036038101906100fa91906113b9565b610859565b60405161010d9291906113e6565b60405180910390f35b610130600480360381019061012b919061140f565b610c9d565b005b61014c600480360381019061014791906113b9565b611082565b60405161015991906110bf565b60405180910390f35b60035481565b60008082116101ac576040517f08c379a00000000000000000000000000000000000000000000000000000000081526004016101a3906114d2565b60405180910390fd5b60008060009054906101000a900473ffffffffffffffffffffffffffffffffffffffff1673ffffffffffffffffffffffffffffffffffffffff166370a08231306040518263ffffffff1660e01b81526004016102089190611501565b602060405180830381865afa158015610225573d6000803e3d6000fd5b505050506040513d601f19601f820116820180604052508101906102499190611531565b90506000600160009054906101000a900473ffffffffffffffffffffffffffffffffffffffff1673ffffffffffffffffffffffffffffffffffffffff166370a08231306040518263ffffffff1660e01b81526004016102a89190611501565b602060405180830381865afa1580156102c5573d6000803e3d6000fd5b505050506040513d601f19601f820116820180604052508101906102e99190611531565b90506000821180156102fb5750600081115b61033a576040517f08c379a0000000000000000000000000000000000000000000000000000000008152600401610331906115aa565b60405180910390fd5b600060405160200161034b90611621565b6040516020818303038152906040528051906020012086604051602001610372919061169c565b60405160208183030381529060405280519060200120036103ca57600061039886611082565b9050600081876103a891906116e2565b90508484826103b79190611716565b6103c19190611787565b92505050610403565b60006103d586611082565b9050600081876103e591906116e2565b90508385826103f49190611716565b6103fe9190611787565b925050505b80935050505092915050565b600080600060405160200161042390611621565b604051602081830303815290604052805190602001208660405160200161044a919061169c565b60405160208183030381529060405280519060200120036104b25760008054906101000a900473ffffffffffffffffffffffffffffffffffffffff169150600160009054906101000a900473ffffffffffffffffffffffffffffffffffffffff1690506104fb565b600160009054906101000a900473ffffffffffffffffffffffffffffffffffffffff16915060008054906101000a900473ffffffffffffffffffffffffffffffffffffffff1690505b838273ffffffffffffffffffffffffffffffffffffffff166370a08231896040518263ffffffff1660e01b81526004016105359190611501565b602060405180830381865afa158015610552573d6000803e3d6000fd5b505050506040513d601f19601f820116820180604052508101906105769190611531565b10156105b7576040517f08c379a00000000000000000000000000000000000000000000000000000000081526004016105ae90611804565b60405180910390fd5b8173ffffffffffffffffffffffffffffffffffffffff166323b872dd8830876040518463ffffffff1660e01b81526004016105f493929190611824565b6020604051808303816000875af1158015610613573d6000803e3d6000fd5b505050506040513d601f19601f820116820180604052508101906106379190611893565b610676576040517f08c379a000000000000000000000000000000000000000000000000000000000815260040161066d9061190c565b60405180910390fd5b600061068185611082565b9050600061068f8887610168565b90508273ffffffffffffffffffffffffffffffffffffffff1663a9059cbb8a836040518363ffffffff1660e01b81526004016106cc92919061192c565b6020604051808303816000875af11580156106eb573d6000803e3d6000fd5b505050506040513d601f19601f8201168201806040525081019061070f9190611893565b61074e576040517f08c379a0000000000000000000000000000000000000000000000000000000008152600401610745906119a1565b60405180910390fd5b600082111561084a57600073ffffffffffffffffffffffffffffffffffffffff168473ffffffffffffffffffffffffffffffffffffffff1614610849578373ffffffffffffffffffffffffffffffffffffffff1663a9059cbb30846040518363ffffffff1660e01b81526004016107c692919061192c565b6020604051808303816000875af11580156107e5573d6000803e3d6000fd5b505050506040513d601f19601f820116820180604052508101906108099190611893565b610848576040517f08c379a000000000000000000000000000000000000000000000000000000000815260040161083f90611a0d565b60405180910390fd5b5b5b80945050505050949350505050565b6000806003548311156108a1576040517f08c379a000000000000000000000000000000000000000000000000000000000815260040161089890611a79565b60405180910390fd5b600060035460008054906101000a900473ffffffffffffffffffffffffffffffffffffffff1673ffffffffffffffffffffffffffffffffffffffff166370a08231306040518263ffffffff1660e01b81526004016108ff9190611501565b602060405180830381865afa15801561091c573d6000803e3d6000fd5b505050506040513d601f19601f820116820180604052508101906109409190611531565b8561094b9190611716565b6109559190611787565b90506000600354600160009054906101000a900473ffffffffffffffffffffffffffffffffffffffff1673ffffffffffffffffffffffffffffffffffffffff166370a08231306040518263ffffffff1660e01b81526004016109b79190611501565b602060405180830381865afa1580156109d4573d6000803e3d6000fd5b505050506040513d601f19601f820116820180604052508101906109f89190611531565b86610a039190611716565b610a0d9190611787565b9050600073ffffffffffffffffffffffffffffffffffffffff1660008054906101000a900473ffffffffffffffffffffffffffffffffffffffff1673ffffffffffffffffffffffffffffffffffffffff1614610b415760008054906101000a900473ffffffffffffffffffffffffffffffffffffffff1673ffffffffffffffffffffffffffffffffffffffff1663a9059cbb33846040518363ffffffff1660e01b8152600401610abe92919061192c565b6020604051808303816000875af1158015610add573d6000803e3d6000fd5b505050506040513d601f19601f82011682018060405250810190610b019190611893565b610b40576040517f08c379a0000000000000000000000000000000000000000000000000000000008152600401610b3790611ae5565b60405180910390fd5b5b600073ffffffffffffffffffffffffffffffffffffffff16600160009054906101000a900473ffffffffffffffffffffffffffffffffffffffff1673ffffffffffffffffffffffffffffffffffffffff1614610c7757600160009054906101000a900473ffffffffffffffffffffffffffffffffffffffff1673ffffffffffffffffffffffffffffffffffffffff1663a9059cbb33836040518363ffffffff1660e01b8152600401610bf492919061192c565b6020604051808303816000875af1158015610c13573d6000803e3d6000fd5b505050506040513d601f19601f82011682018060405250810190610c379190611893565b610c76576040517f08c379a0000000000000000000000000000000000000000000000000000000008152600401610c6d90611b51565b60405180910390fd5b5b8460036000828254610c8991906116e2565b925050819055508181935093505050915091565b6000821180610cac5750600081115b610ceb576040517f08c379a0000000000000000000000000000000000000000000000000000000008152600401610ce290611be3565b60405180910390fd5b60008060009054906101000a900473ffffffffffffffffffffffffffffffffffffffff1673ffffffffffffffffffffffffffffffffffffffff166370a08231306040518263ffffffff1660e01b8152600401610d479190611501565b602060405180830381865afa158015610d64573d6000803e3d6000fd5b505050506040513d601f19601f82011682018060405250810190610d889190611531565b90506000600160009054906101000a900473ffffffffffffffffffffffffffffffffffffffff1673ffffffffffffffffffffffffffffffffffffffff166370a08231306040518263ffffffff1660e01b8152600401610de79190611501565b602060405180830381865afa158015610e04573d6000803e3d6000fd5b505050506040513d601f19601f82011682018060405250810190610e289190611531565b9050600082118015610e3a5750600081115b15610e98578183610e4b9190611716565b8185610e579190611716565b14610e97576040517f08c379a0000000000000000000000000000000000000000000000000000000008152600401610e8e90611c75565b60405180910390fd5b5b60008054906101000a900473ffffffffffffffffffffffffffffffffffffffff1673ffffffffffffffffffffffffffffffffffffffff166323b872dd3330876040518463ffffffff1660e01b8152600401610ef593929190611824565b6020604051808303816000875af1158015610f14573d6000803e3d6000fd5b505050506040513d601f19601f82011682018060405250810190610f389190611893565b610f77576040517f08c379a0000000000000000000000000000000000000000000000000000000008152600401610f6e90611ae5565b60405180910390fd5b600160009054906101000a900473ffffffffffffffffffffffffffffffffffffffff1673ffffffffffffffffffffffffffffffffffffffff166323b872dd3330866040518463ffffffff1660e01b8152600401610fd693929190611824565b6020604051808303816000875af1158015610ff5573d6000803e3d6000fd5b505050506040513d601f19601f820116820180604052508101906110199190611893565b611058576040517f08c379a000000000000000000000000000000000000000000000000000000000815260040161104f90611b51565b60405180910390fd5b82846110649190611c95565b600360008282546110759190611c95565b9250508190555050505050565b6000612710600254836110959190611716565b61109f9190611787565b9050919050565b6000819050919050565b6110b9816110a6565b82525050565b60006020820190506110d460008301846110b0565b92915050565b6000604051905090565b600080fd5b600080fd5b600080fd5b600080fd5b6000601f19601f8301169050919050565b7f4e487b7100000000000000000000000000000000000000000000000000000000600052604160045260246000fd5b611141826110f8565b810181811067ffffffffffffffff821117156111605761115f611109565b5b80604052505050565b60006111736110da565b905061117f8282611138565b919050565b600067ffffffffffffffff82111561119f5761119e611109565b5b6111a8826110f8565b9050602081019050919050565b82818337600083830152505050565b60006111d76111d284611184565b611169565b9050828152602081018484840111156111f3576111f26110f3565b5b6111fe8482856111b5565b509392505050565b600082601f83011261121b5761121a6110ee565b5b813561122b8482602086016111c4565b91505092915050565b61123d816110a6565b811461124857600080fd5b50565b60008135905061125a81611234565b92915050565b60008060408385031215611277576112766110e4565b5b600083013567ffffffffffffffff811115611295576112946110e9565b5b6112a185828601611206565b92505060206112b28582860161124b565b9150509250929050565b600073ffffffffffffffffffffffffffffffffffffffff82169050919050565b60006112e7826112bc565b9050919050565b6112f7816112dc565b811461130257600080fd5b50565b600081359050611314816112ee565b92915050565b60008060008060808587031215611334576113336110e4565b5b600061134287828801611305565b945050602085013567ffffffffffffffff811115611363576113626110e9565b5b61136f87828801611206565b935050604085013567ffffffffffffffff8111156113905761138f6110e9565b5b61139c87828801611206565b92505060606113ad8782880161124b565b91505092959194509250565b6000602082840312156113cf576113ce6110e4565b5b60006113dd8482850161124b565b91505092915050565b60006040820190506113fb60008301856110b0565b61140860208301846110b0565b9392505050565b60008060408385031215611426576114256110e4565b5b60006114348582860161124b565b92505060206114458582860161124b565b9150509250929050565b600082825260208201905092915050565b7f496e70757420616d6f756e74206d75737420626520677265617465722074686160008201527f6e20300000000000000000000000000000000000000000000000000000000000602082015250565b60006114bc60238361144f565b91506114c782611460565b604082019050919050565b600060208201905081810360008301526114eb816114af565b9050919050565b6114fb816112dc565b82525050565b600060208201905061151660008301846114f2565b92915050565b60008151905061152b81611234565b92915050565b600060208284031215611547576115466110e4565b5b60006115558482850161151c565b91505092915050565b7f496e73756666696369656e74206c697175696469747900000000000000000000600082015250565b600061159460168361144f565b915061159f8261155e565b602082019050919050565b600060208201905081810360008301526115c381611587565b9050919050565b600081905092915050565b7f746f6b656e410000000000000000000000000000000000000000000000000000600082015250565b600061160b6006836115ca565b9150611616826115d5565b600682019050919050565b600061162c826115fe565b9150819050919050565b600081519050919050565b60005b8381101561165f578082015181840152602081019050611644565b60008484015250505050565b600061167682611636565b61168081856115ca565b9350611690818560208601611641565b80840191505092915050565b60006116a8828461166b565b915081905092915050565b7f4e487b7100000000000000000000000000000000000000000000000000000000600052601160045260246000fd5b60006116ed826110a6565b91506116f8836110a6565b92508282039050818111156117105761170f6116b3565b5b92915050565b6000611721826110a6565b915061172c836110a6565b925082820261173a816110a6565b91508282048414831517611751576117506116b3565b5b5092915050565b7f4e487b7100000000000000000000000000000000000000000000000000000000600052601260045260246000fd5b6000611792826110a6565b915061179d836110a6565b9250826117ad576117ac611758565b5b828204905092915050565b7f496e73756666696369656e742062616c616e6365000000000000000000000000600082015250565b60006117ee60148361144f565b91506117f9826117b8565b602082019050919050565b6000602082019050818103600083015261181d816117e1565b9050919050565b600060608201905061183960008301866114f2565b61184660208301856114f2565b61185360408301846110b0565b949350505050565b60008115159050919050565b6118708161185b565b811461187b57600080fd5b50565b60008151905061188d81611867565b92915050565b6000602082840312156118a9576118a86110e4565b5b60006118b78482850161187e565b91505092915050565b7f5472616e73666572206661696c656420666f7220746f6b656e46726f6d000000600082015250565b60006118f6601d8361144f565b9150611901826118c0565b602082019050919050565b60006020820190508181036000830152611925816118e9565b9050919050565b600060408201905061194160008301856114f2565b61194e60208301846110b0565b9392505050565b7f5472616e73666572206661696c656420666f7220746f6b656e546f0000000000600082015250565b600061198b601b8361144f565b915061199682611955565b602082019050919050565b600060208201905081810360008301526119ba8161197e565b9050919050565b7f5472616e73666572206661696c656420666f7220666565000000000000000000600082015250565b60006119f760178361144f565b9150611a02826119c1565b602082019050919050565b60006020820190508181036000830152611a26816119ea565b9050919050565b7f496e73756666696369656e7420706f6f6c20746f6b656e730000000000000000600082015250565b6000611a6360188361144f565b9150611a6e82611a2d565b602082019050919050565b60006020820190508181036000830152611a9281611a56565b9050919050565b7f5472616e73666572206661696c656420666f7220746f6b656e41000000000000600082015250565b6000611acf601a8361144f565b9150611ada82611a99565b602082019050919050565b60006020820190508181036000830152611afe81611ac2565b9050919050565b7f5472616e73666572206661696c656420666f7220746f6b656e42000000000000600082015250565b6000611b3b601a8361144f565b9150611b4682611b05565b602082019050919050565b60006020820190508181036000830152611b6a81611b2e565b9050919050565b7f496e76616c696420616d6f756e74733a20626f74682063616e6e6f742062652060008201527f7a65726f00000000000000000000000000000000000000000000000000000000602082015250565b6000611bcd60248361144f565b9150611bd882611b71565b604082019050919050565b60006020820190508181036000830152611bfc81611bc0565b9050919050565b7f556e62616c616e63656420616d6f756e74733a206d75737420626520696e206360008201527f757272656e7420726174696f0000000000000000000000000000000000000000602082015250565b6000611c5f602c8361144f565b9150611c6a82611c03565b604082019050919050565b60006020820190508181036000830152611c8e81611c52565b9050919050565b6000611ca0826110a6565b9150611cab836110a6565b9250828201905080821115611cc357611cc26116b3565b5b9291505056fea26469706673582212201611dcc3cc211ef88170b3756188ee0ae4fa05456ad47d5093b0ac34f92fc3eb64736f6c63430008180033",
  "linkReferences": {},
  "deployedLinkReferences": {}
}