{
  "_format": "hh-sol-artifact-1",
  "contractName": "LiquidityPool",
  "sourceName": "contracts/LiquidityPool.sol",
  "abi": [
    {
      "inputs": [
        {
          "internalType": "uint256",
          "name": "_tokenA",
          "type": "uint256"
        },
        {
          "internalType": "uint256",
          "name": "_tokenB",
          "type": "uint256"
        }
      ],
      "stateMutability": "nonpayable",
      "type": "constructor"
    },
    {
      "inputs": [
        {
          "internalType": "uint256",
          "name": "amountA",
          "type": "uint256"
        },
        {
          "internalType": "uint256",
          "name": "amountB",
          "type": "uint256"
        }
      ],
      "name": "addLiquidity",
      "outputs": [],
      "stateMutability": "nonpayable",
      "type": "function"
    },
    {
      "inputs": [
        {
          "internalType": "uint256",
          "name": "amount",
          "type": "uint256"
        }
      ],
      "name": "getFee",
      "outputs": [
        {
          "internalType": "uint256",
          "name": "",
          "type": "uint256"
        }
      ],
      "stateMutability": "view",
      "type": "function"
    },
    {
      "inputs": [
        {
          "internalType": "uint256",
          "name": "poolTokens",
          "type": "uint256"
        }
      ],
      "name": "removeLiquidity",
      "outputs": [
        {
          "internalType": "uint256",
          "name": "",
          "type": "uint256"
        },
        {
          "internalType": "uint256",
          "name": "",
          "type": "uint256"
        }
      ],
      "stateMutability": "nonpayable",
      "type": "function"
    },
    {
      "inputs": [
        {
          "internalType": "string",
          "name": "tokenFrom",
          "type": "string"
        },
        {
          "internalType": "string",
          "name": "tokenTo",
          "type": "string"
        },
        {
          "internalType": "uint256",
          "name": "amount",
          "type": "uint256"
        }
      ],
      "name": "swap",
      "outputs": [
        {
          "internalType": "uint256",
          "name": "",
          "type": "uint256"
        }
      ],
      "stateMutability": "nonpayable",
      "type": "function"
    }
  ],
  "bytecode": "0x6080604052606460025534801561001557600080fd5b5060405161090d38038061090d83398181016040528101906100379190610087565b816000819055508060018190555050506100c7565b600080fd5b6000819050919050565b61006481610051565b811461006f57600080fd5b50565b6000815190506100818161005b565b92915050565b6000806040838503121561009e5761009d61004c565b5b60006100ac85828601610072565b92505060206100bd85828601610072565b9150509250929050565b610837806100d66000396000f3fe608060405234801561001057600080fd5b506004361061004c5760003560e01c80639c8f9f23146100515780639cd441da14610082578063a451f6021461009e578063fcee45f4146100ce575b600080fd5b61006b6004803603810190610066919061034e565b6100fe565b60405161007992919061038a565b60405180910390f35b61009c600480360381019061009791906103b3565b610197565b005b6100b860048036038101906100b39190610539565b6101cc565b6040516100c591906105c4565b60405180910390f35b6100e860048036038101906100e3919061034e565b6102e0565b6040516100f591906105c4565b60405180910390f35b6000806000600154600054610113919061060e565b846000546101219190610642565b61012b91906106b3565b9050600060015460005461013f919061060e565b8560015461014d9190610642565b61015791906106b3565b90508160008082825461016a91906106e4565b92505081905550806001600082825461018391906106e4565b925050819055508181935093505050915091565b816000808282546101a8919061060e565b9250508190555080600160008282546101c1919061060e565b925050819055505050565b6000806040516020016101de9061076f565b604051602081830303815290604052805190602001208560405160200161020591906107ea565b604051602081830303815290604052805190602001200361027357600054600154846102319190610642565b61023b91906106b3565b90508260008082825461024e919061060e565b92505081905550806001600082825461026791906106e4565b925050819055506102c2565b600154600054846102849190610642565b61028e91906106b3565b905082600160008282546102a2919061060e565b92505081905550806000808282546102ba91906106e4565b925050819055505b6102cb816102e0565b816102d691906106e4565b9150509392505050565b6000612710600254836102f39190610642565b6102fd91906106b3565b9050919050565b6000604051905090565b600080fd5b600080fd5b6000819050919050565b61032b81610318565b811461033657600080fd5b50565b60008135905061034881610322565b92915050565b6000602082840312156103645761036361030e565b5b600061037284828501610339565b91505092915050565b61038481610318565b82525050565b600060408201905061039f600083018561037b565b6103ac602083018461037b565b9392505050565b600080604083850312156103ca576103c961030e565b5b60006103d885828601610339565b92505060206103e985828601610339565b9150509250929050565b600080fd5b600080fd5b6000601f19601f8301169050919050565b7f4e487b7100000000000000000000000000000000000000000000000000000000600052604160045260246000fd5b610446826103fd565b810181811067ffffffffffffffff821117156104655761046461040e565b5b80604052505050565b6000610478610304565b9050610484828261043d565b919050565b600067ffffffffffffffff8211156104a4576104a361040e565b5b6104ad826103fd565b9050602081019050919050565b82818337600083830152505050565b60006104dc6104d784610489565b61046e565b9050828152602081018484840111156104f8576104f76103f8565b5b6105038482856104ba565b509392505050565b600082601f8301126105205761051f6103f3565b5b81356105308482602086016104c9565b91505092915050565b6000806000606084860312156105525761055161030e565b5b600084013567ffffffffffffffff8111156105705761056f610313565b5b61057c8682870161050b565b935050602084013567ffffffffffffffff81111561059d5761059c610313565b5b6105a98682870161050b565b92505060406105ba86828701610339565b9150509250925092565b60006020820190506105d9600083018461037b565b92915050565b7f4e487b7100000000000000000000000000000000000000000000000000000000600052601160045260246000fd5b600061061982610318565b915061062483610318565b925082820190508082111561063c5761063b6105df565b5b92915050565b600061064d82610318565b915061065883610318565b925082820261066681610318565b9150828204841483151761067d5761067c6105df565b5b5092915050565b7f4e487b7100000000000000000000000000000000000000000000000000000000600052601260045260246000fd5b60006106be82610318565b91506106c983610318565b9250826106d9576106d8610684565b5b828204905092915050565b60006106ef82610318565b91506106fa83610318565b9250828203905081811115610712576107116105df565b5b92915050565b600081905092915050565b7f746f6b656e410000000000000000000000000000000000000000000000000000600082015250565b6000610759600683610718565b915061076482610723565b600682019050919050565b600061077a8261074c565b9150819050919050565b600081519050919050565b60005b838110156107ad578082015181840152602081019050610792565b60008484015250505050565b60006107c482610784565b6107ce8185610718565b93506107de81856020860161078f565b80840191505092915050565b60006107f682846107b9565b91508190509291505056fea26469706673582212201208c9292e1163f8cef8c53c6460f0feb2253bf7a5339a85e2c07ad99cdfc7fd64736f6c63430008180033",
  "linkReferences": {},
  "deployedLinkReferences": {}
}