{
  "contracts/LiquidityPoolV2.sol": {
    "LiquidityPoolV2": {
      "abi": [
        {
          "inputs": [
            {
              "internalType": "address",
              "name": "_tokenA",
              "type": "address"
            },
            {
              "internalType": "address",
              "name": "_tokenB",
              "type": "address"
            },
            {
              "internalType": "uint256",
              "name": "initialSupplyA",
              "type": "uint256"
            },
            {
              "internalType": "uint256",
              "name": "initialSupplyB",
              "type": "uint256"
            }
          ],
          "stateMutability": "nonpayable",
          "type": "constructor"
        },
        {
          "inputs": [
            {
              "internalType": "uint256",
              "name": "amountA",
              "type": "uint256"
            },
            {
              "internalType": "uint256",
              "name": "amountB",
              "type": "uint256"
            }
          ],
          "name": "addLiquidity",
          "outputs": [],
          "stateMutability": "nonpayable",
          "type": "function"
        },
        {
          "inputs": [
            {
              "internalType": "uint256",
              "name": "amount",
              "type": "uint256"
            }
          ],
          "name": "getFee",
          "outputs": [
            {
              "internalType": "uint256",
              "name": "",
              "type": "uint256"
            }
          ],
          "stateMutability": "view",
          "type": "function"
        },
        {
          "inputs": [
            {
              "internalType": "address",
              "name": "userWallet",
              "type": "address"
            },
            {
              "internalType": "string",
              "name": "tokenFrom",
              "type": "string"
            },
            {
              "internalType": "string",
              "name": "tokenTo",
              "type": "string"
            },
            {
              "internalType": "uint256",
              "name": "amount",
              "type": "uint256"
            }
          ],
          "name": "swap",
          "outputs": [
            {
              "internalType": "uint256",
              "name": "",
              "type": "uint256"
            }
          ],
          "stateMutability": "nonpayable",
          "type": "function"
        },
        {
          "inputs": [],
          "name": "totalSupply",
          "outputs": [
            {
              "internalType": "uint256",
              "name": "",
              "type": "uint256"
            }
          ],
          "stateMutability": "view",
          "type": "function"
        }
      ],
      "evm": {
        "bytecode": {
          "linkReferences": {},
          "object": "608060405260646002553480156200001657600080fd5b50604051620016e1380380620016e183398181016040528101906200003c919062000352565b836000806101000a81548173ffffffffffffffffffffffffffffffffffffffff021916908373ffffffffffffffffffffffffffffffffffffffff16021790555082600160006101000a81548173ffffffffffffffffffffffffffffffffffffffff021916908373ffffffffffffffffffffffffffffffffffffffff160217905550600073ffffffffffffffffffffffffffffffffffffffff1660008054906101000a900473ffffffffffffffffffffffffffffffffffffffff1673ffffffffffffffffffffffffffffffffffffffff1614620001a45760008054906101000a900473ffffffffffffffffffffffffffffffffffffffff1673ffffffffffffffffffffffffffffffffffffffff166340c10f1930846040518363ffffffff1660e01b81526004016200016f929190620003e6565b600060405180830381600087803b1580156200018a57600080fd5b505af11580156200019f573d6000803e3d6000fd5b505050505b600073ffffffffffffffffffffffffffffffffffffffff16600160009054906101000a900473ffffffffffffffffffffffffffffffffffffffff1673ffffffffffffffffffffffffffffffffffffffff16146200028f57600160009054906101000a900473ffffffffffffffffffffffffffffffffffffffff1673ffffffffffffffffffffffffffffffffffffffff166340c10f1930836040518363ffffffff1660e01b81526004016200025a929190620003e6565b600060405180830381600087803b1580156200027557600080fd5b505af11580156200028a573d6000803e3d6000fd5b505050505b80826200029d919062000442565b600381905550505050506200047d565b600080fd5b600073ffffffffffffffffffffffffffffffffffffffff82169050919050565b6000620002df82620002b2565b9050919050565b620002f181620002d2565b8114620002fd57600080fd5b50565b6000815190506200031181620002e6565b92915050565b6000819050919050565b6200032c8162000317565b81146200033857600080fd5b50565b6000815190506200034c8162000321565b92915050565b600080600080608085870312156200036f576200036e620002ad565b5b60006200037f8782880162000300565b9450506020620003928782880162000300565b9350506040620003a5878288016200033b565b9250506060620003b8878288016200033b565b91505092959194509250565b620003cf81620002d2565b82525050565b620003e08162000317565b82525050565b6000604082019050620003fd6000830185620003c4565b6200040c6020830184620003d5565b9392505050565b7f4e487b7100000000000000000000000000000000000000000000000000000000600052601160045260246000fd5b60006200044f8262000317565b91506200045c8362000317565b925082820190508082111562000477576200047662000413565b5b92915050565b611254806200048d6000396000f3fe608060405234801561001057600080fd5b506004361061004c5760003560e01c806318160ddd1461005157806390b0b7211461006f5780639cd441da1461009f578063fcee45f4146100bb575b600080fd5b6100596100eb565b6040516100669190610927565b60405180910390f35b61008960048036038101906100849190610b26565b6100f1565b6040516100969190610927565b60405180910390f35b6100b960048036038101906100b49190610bc5565b610656565b005b6100d560048036038101906100d09190610c05565b6108ea565b6040516100e29190610927565b60405180910390f35b60035481565b600080600060405160200161010590610c89565b604051602081830303815290604052805190602001208660405160200161012c9190610d04565b60405160208183030381529060405280519060200120036101945760008054906101000a900473ffffffffffffffffffffffffffffffffffffffff169150600160009054906101000a900473ffffffffffffffffffffffffffffffffffffffff1690506101dd565b600160009054906101000a900473ffffffffffffffffffffffffffffffffffffffff16915060008054906101000a900473ffffffffffffffffffffffffffffffffffffffff1690505b838273ffffffffffffffffffffffffffffffffffffffff166370a08231896040518263ffffffff1660e01b81526004016102179190610d2a565b602060405180830381865afa158015610234573d6000803e3d6000fd5b505050506040513d601f19601f820116820180604052508101906102589190610d5a565b1015610299576040517f08c379a000000000000000000000000000000000000000000000000000000000815260040161029090610de4565b60405180910390fd5b8173ffffffffffffffffffffffffffffffffffffffff166323b872dd8830876040518463ffffffff1660e01b81526004016102d693929190610e04565b6020604051808303816000875af11580156102f5573d6000803e3d6000fd5b505050506040513d601f19601f820116820180604052508101906103199190610e73565b610358576040517f08c379a000000000000000000000000000000000000000000000000000000000815260040161034f90610eec565b60405180910390fd5b6000610363856108ea565b9050600081866103739190610f3b565b90506000818573ffffffffffffffffffffffffffffffffffffffff166370a08231306040518263ffffffff1660e01b81526004016103b19190610d2a565b602060405180830381865afa1580156103ce573d6000803e3d6000fd5b505050506040513d601f19601f820116820180604052508101906103f29190610d5a565b6103fc9190610f6f565b8473ffffffffffffffffffffffffffffffffffffffff166370a08231306040518263ffffffff1660e01b81526004016104359190610d2a565b602060405180830381865afa158015610452573d6000803e3d6000fd5b505050506040513d601f19601f820116820180604052508101906104769190610d5a565b836104819190610fa3565b61048b9190611014565b90508373ffffffffffffffffffffffffffffffffffffffff1663a9059cbb8b836040518363ffffffff1660e01b81526004016104c8929190611045565b6020604051808303816000875af11580156104e7573d6000803e3d6000fd5b505050506040513d601f19601f8201168201806040525081019061050b9190610e73565b61054a576040517f08c379a0000000000000000000000000000000000000000000000000000000008152600401610541906110ba565b60405180910390fd5b600083111561064657600073ffffffffffffffffffffffffffffffffffffffff168573ffffffffffffffffffffffffffffffffffffffff1614610645578473ffffffffffffffffffffffffffffffffffffffff1663a9059cbb30856040518363ffffffff1660e01b81526004016105c2929190611045565b6020604051808303816000875af11580156105e1573d6000803e3d6000fd5b505050506040513d601f19601f820116820180604052508101906106059190610e73565b610644576040517f08c379a000000000000000000000000000000000000000000000000000000000815260040161063b90611126565b60405180910390fd5b5b5b8095505050505050949350505050565b600073ffffffffffffffffffffffffffffffffffffffff1660008054906101000a900473ffffffffffffffffffffffffffffffffffffffff1673ffffffffffffffffffffffffffffffffffffffff161461078a5760008054906101000a900473ffffffffffffffffffffffffffffffffffffffff1673ffffffffffffffffffffffffffffffffffffffff166323b872dd3330856040518463ffffffff1660e01b815260040161070793929190610e04565b6020604051808303816000875af1158015610726573d6000803e3d6000fd5b505050506040513d601f19601f8201168201806040525081019061074a9190610e73565b610789576040517f08c379a000000000000000000000000000000000000000000000000000000000815260040161078090611192565b60405180910390fd5b5b600073ffffffffffffffffffffffffffffffffffffffff16600160009054906101000a900473ffffffffffffffffffffffffffffffffffffffff1673ffffffffffffffffffffffffffffffffffffffff16146108c257600160009054906101000a900473ffffffffffffffffffffffffffffffffffffffff1673ffffffffffffffffffffffffffffffffffffffff166323b872dd3330846040518463ffffffff1660e01b815260040161083f93929190610e04565b6020604051808303816000875af115801561085e573d6000803e3d6000fd5b505050506040513d601f19601f820116820180604052508101906108829190610e73565b6108c1576040517f08c379a00000000000000000000000000000000000000000000000000000000081526004016108b8906111fe565b60405180910390fd5b5b80826108ce9190610f6f565b600360008282546108df9190610f6f565b925050819055505050565b6000612710600254836108fd9190610fa3565b6109079190611014565b9050919050565b6000819050919050565b6109218161090e565b82525050565b600060208201905061093c6000830184610918565b92915050565b6000604051905090565b600080fd5b600080fd5b600073ffffffffffffffffffffffffffffffffffffffff82169050919050565b600061098182610956565b9050919050565b61099181610976565b811461099c57600080fd5b50565b6000813590506109ae81610988565b92915050565b600080fd5b600080fd5b6000601f19601f8301169050919050565b7f4e487b7100000000000000000000000000000000000000000000000000000000600052604160045260246000fd5b610a07826109be565b810181811067ffffffffffffffff82111715610a2657610a256109cf565b5b80604052505050565b6000610a39610942565b9050610a4582826109fe565b919050565b600067ffffffffffffffff821115610a6557610a646109cf565b5b610a6e826109be565b9050602081019050919050565b82818337600083830152505050565b6000610a9d610a9884610a4a565b610a2f565b905082815260208101848484011115610ab957610ab86109b9565b5b610ac4848285610a7b565b509392505050565b600082601f830112610ae157610ae06109b4565b5b8135610af1848260208601610a8a565b91505092915050565b610b038161090e565b8114610b0e57600080fd5b50565b600081359050610b2081610afa565b92915050565b60008060008060808587031215610b4057610b3f61094c565b5b6000610b4e8782880161099f565b945050602085013567ffffffffffffffff811115610b6f57610b6e610951565b5b610b7b87828801610acc565b935050604085013567ffffffffffffffff811115610b9c57610b9b610951565b5b610ba887828801610acc565b9250506060610bb987828801610b11565b91505092959194509250565b60008060408385031215610bdc57610bdb61094c565b5b6000610bea85828601610b11565b9250506020610bfb85828601610b11565b9150509250929050565b600060208284031215610c1b57610c1a61094c565b5b6000610c2984828501610b11565b91505092915050565b600081905092915050565b7f746f6b656e410000000000000000000000000000000000000000000000000000600082015250565b6000610c73600683610c32565b9150610c7e82610c3d565b600682019050919050565b6000610c9482610c66565b9150819050919050565b600081519050919050565b60005b83811015610cc7578082015181840152602081019050610cac565b60008484015250505050565b6000610cde82610c9e565b610ce88185610c32565b9350610cf8818560208601610ca9565b80840191505092915050565b6000610d108284610cd3565b915081905092915050565b610d2481610976565b82525050565b6000602082019050610d3f6000830184610d1b565b92915050565b600081519050610d5481610afa565b92915050565b600060208284031215610d7057610d6f61094c565b5b6000610d7e84828501610d45565b91505092915050565b600082825260208201905092915050565b7f496e73756666696369656e742062616c616e6365000000000000000000000000600082015250565b6000610dce601483610d87565b9150610dd982610d98565b602082019050919050565b60006020820190508181036000830152610dfd81610dc1565b9050919050565b6000606082019050610e196000830186610d1b565b610e266020830185610d1b565b610e336040830184610918565b949350505050565b60008115159050919050565b610e5081610e3b565b8114610e5b57600080fd5b50565b600081519050610e6d81610e47565b92915050565b600060208284031215610e8957610e8861094c565b5b6000610e9784828501610e5e565b91505092915050565b7f5472616e73666572206661696c656420666f7220746f6b656e46726f6d000000600082015250565b6000610ed6601d83610d87565b9150610ee182610ea0565b602082019050919050565b60006020820190508181036000830152610f0581610ec9565b9050919050565b7f4e487b7100000000000000000000000000000000000000000000000000000000600052601160045260246000fd5b6000610f468261090e565b9150610f518361090e565b9250828203905081811115610f6957610f68610f0c565b5b92915050565b6000610f7a8261090e565b9150610f858361090e565b9250828201905080821115610f9d57610f9c610f0c565b5b92915050565b6000610fae8261090e565b9150610fb98361090e565b9250828202610fc78161090e565b91508282048414831517610fde57610fdd610f0c565b5b5092915050565b7f4e487b7100000000000000000000000000000000000000000000000000000000600052601260045260246000fd5b600061101f8261090e565b915061102a8361090e565b92508261103a57611039610fe5565b5b828204905092915050565b600060408201905061105a6000830185610d1b565b6110676020830184610918565b9392505050565b7f5472616e73666572206661696c656420666f7220746f6b656e546f0000000000600082015250565b60006110a4601b83610d87565b91506110af8261106e565b602082019050919050565b600060208201905081810360008301526110d381611097565b9050919050565b7f5472616e73666572206661696c656420666f7220666565000000000000000000600082015250565b6000611110601783610d87565b915061111b826110da565b602082019050919050565b6000602082019050818103600083015261113f81611103565b9050919050565b7f5472616e73666572206661696c656420666f7220746f6b656e41000000000000600082015250565b600061117c601a83610d87565b915061118782611146565b602082019050919050565b600060208201905081810360008301526111ab8161116f565b9050919050565b7f5472616e73666572206661696c656420666f7220746f6b656e42000000000000600082015250565b60006111e8601a83610d87565b91506111f3826111b2565b602082019050919050565b60006020820190508181036000830152611217816111db565b905091905056fea2646970667358221220339270697070acc1ff6d1a6a1c7ec8c214b3a155f3e9397cbb5705258dccaa8764736f6c63430008180033",
          "opcodes": "PUSH1 0x80 PUSH1 0x40 MSTORE PUSH1 0x64 PUSH1 0x2 SSTORE CALLVALUE DUP1 ISZERO PUSH3 0x16 JUMPI PUSH1 0x0 DUP1 REVERT JUMPDEST POP PUSH1 0x40 MLOAD PUSH3 0x16E1 CODESIZE SUB DUP1 PUSH3 0x16E1 DUP4 CODECOPY DUP2 DUP2 ADD PUSH1 0x40 MSTORE DUP2 ADD SWAP1 PUSH3 0x3C SWAP2 SWAP1 PUSH3 0x352 JUMP JUMPDEST DUP4 PUSH1 0x0 DUP1 PUSH2 0x100 EXP DUP2 SLOAD DUP2 PUSH20 0xFFFFFFFFFFFFFFFFFFFFFFFFFFFFFFFFFFFFFFFF MUL NOT AND SWAP1 DUP4 PUSH20 0xFFFFFFFFFFFFFFFFFFFFFFFFFFFFFFFFFFFFFFFF AND MUL OR SWAP1 SSTORE POP DUP3 PUSH1 0x1 PUSH1 0x0 PUSH2 0x100 EXP DUP2 SLOAD DUP2 PUSH20 0xFFFFFFFFFFFFFFFFFFFFFFFFFFFFFFFFFFFFFFFF MUL NOT AND SWAP1 DUP4 PUSH20 0xFFFFFFFFFFFFFFFFFFFFFFFFFFFFFFFFFFFFFFFF AND MUL OR SWAP1 SSTORE POP PUSH1 0x0 PUSH20 0xFFFFFFFFFFFFFFFFFFFFFFFFFFFFFFFFFFFFFFFF AND PUSH1 0x0 DUP1 SLOAD SWAP1 PUSH2 0x100 EXP SWAP1 DIV PUSH20 0xFFFFFFFFFFFFFFFFFFFFFFFFFFFFFFFFFFFFFFFF AND PUSH20 0xFFFFFFFFFFFFFFFFFFFFFFFFFFFFFFFFFFFFFFFF AND EQ PUSH3 0x1A4 JUMPI PUSH1 0x0 DUP1 SLOAD SWAP1 PUSH2 0x100 EXP SWAP1 DIV PUSH20 0xFFFFFFFFFFFFFFFFFFFFFFFFFFFFFFFFFFFFFFFF AND PUSH20 0xFFFFFFFFFFFFFFFFFFFFFFFFFFFFFFFFFFFFFFFF AND PUSH4 0x40C10F19 ADDRESS DUP5 PUSH1 0x40 MLOAD DUP4 PUSH4 0xFFFFFFFF AND PUSH1 0xE0 SHL DUP2 MSTORE PUSH1 0x4 ADD PUSH3 0x16F SWAP3 SWAP2 SWAP1 PUSH3 0x3E6 JUMP JUMPDEST PUSH1 0x0 PUSH1 0x40 MLOAD DUP1 DUP4 SUB DUP2 PUSH1 0x0 DUP8 DUP1 EXTCODESIZE ISZERO DUP1 ISZERO PUSH3 0x18A JUMPI PUSH1 0x0 DUP1 REVERT JUMPDEST POP GAS CALL ISZERO DUP1 ISZERO PUSH3 0x19F JUMPI RETURNDATASIZE PUSH1 0x0 DUP1 RETURNDATACOPY RETURNDATASIZE PUSH1 0x0 REVERT JUMPDEST POP POP POP POP JUMPDEST PUSH1 0x0 PUSH20 0xFFFFFFFFFFFFFFFFFFFFFFFFFFFFFFFFFFFFFFFF AND PUSH1 0x1 PUSH1 0x0 SWAP1 SLOAD SWAP1 PUSH2 0x100 EXP SWAP1 DIV PUSH20 0xFFFFFFFFFFFFFFFFFFFFFFFFFFFFFFFFFFFFFFFF AND PUSH20 0xFFFFFFFFFFFFFFFFFFFFFFFFFFFFFFFFFFFFFFFF AND EQ PUSH3 0x28F JUMPI PUSH1 0x1 PUSH1 0x0 SWAP1 SLOAD SWAP1 PUSH2 0x100 EXP SWAP1 DIV PUSH20 0xFFFFFFFFFFFFFFFFFFFFFFFFFFFFFFFFFFFFFFFF AND PUSH20 0xFFFFFFFFFFFFFFFFFFFFFFFFFFFFFFFFFFFFFFFF AND PUSH4 0x40C10F19 ADDRESS DUP4 PUSH1 0x40 MLOAD DUP4 PUSH4 0xFFFFFFFF AND PUSH1 0xE0 SHL DUP2 MSTORE PUSH1 0x4 ADD PUSH3 0x25A SWAP3 SWAP2 SWAP1 PUSH3 0x3E6 JUMP JUMPDEST PUSH1 0x0 PUSH1 0x40 MLOAD DUP1 DUP4 SUB DUP2 PUSH1 0x0 DUP8 DUP1 EXTCODESIZE ISZERO DUP1 ISZERO PUSH3 0x275 JUMPI PUSH1 0x0 DUP1 REVERT JUMPDEST POP GAS CALL ISZERO DUP1 ISZERO PUSH3 0x28A JUMPI RETURNDATASIZE PUSH1 0x0 DUP1 RETURNDATACOPY RETURNDATASIZE PUSH1 0x0 REVERT JUMPDEST POP POP POP POP JUMPDEST DUP1 DUP3 PUSH3 0x29D SWAP2 SWAP1 PUSH3 0x442 JUMP JUMPDEST PUSH1 0x3 DUP2 SWAP1 SSTORE POP POP POP POP POP PUSH3 0x47D JUMP JUMPDEST PUSH1 0x0 DUP1 REVERT JUMPDEST PUSH1 0x0 PUSH20 0xFFFFFFFFFFFFFFFFFFFFFFFFFFFFFFFFFFFFFFFF DUP3 AND SWAP1 POP SWAP2 SWAP1 POP JUMP JUMPDEST PUSH1 0x0 PUSH3 0x2DF DUP3 PUSH3 0x2B2 JUMP JUMPDEST SWAP1 POP SWAP2 SWAP1 POP JUMP JUMPDEST PUSH3 0x2F1 DUP2 PUSH3 0x2D2 JUMP JUMPDEST DUP2 EQ PUSH3 0x2FD JUMPI PUSH1 0x0 DUP1 REVERT JUMPDEST POP JUMP JUMPDEST PUSH1 0x0 DUP2 MLOAD SWAP1 POP PUSH3 0x311 DUP2 PUSH3 0x2E6 JUMP JUMPDEST SWAP3 SWAP2 POP POP JUMP JUMPDEST PUSH1 0x0 DUP2 SWAP1 POP SWAP2 SWAP1 POP JUMP JUMPDEST PUSH3 0x32C DUP2 PUSH3 0x317 JUMP JUMPDEST DUP2 EQ PUSH3 0x338 JUMPI PUSH1 0x0 DUP1 REVERT JUMPDEST POP JUMP JUMPDEST PUSH1 0x0 DUP2 MLOAD SWAP1 POP PUSH3 0x34C DUP2 PUSH3 0x321 JUMP JUMPDEST SWAP3 SWAP2 POP POP JUMP JUMPDEST PUSH1 0x0 DUP1 PUSH1 0x0 DUP1 PUSH1 0x80 DUP6 DUP8 SUB SLT ISZERO PUSH3 0x36F JUMPI PUSH3 0x36E PUSH3 0x2AD JUMP JUMPDEST JUMPDEST PUSH1 0x0 PUSH3 0x37F DUP8 DUP3 DUP9 ADD PUSH3 0x300 JUMP JUMPDEST SWAP5 POP POP PUSH1 0x20 PUSH3 0x392 DUP8 DUP3 DUP9 ADD PUSH3 0x300 JUMP JUMPDEST SWAP4 POP POP PUSH1 0x40 PUSH3 0x3A5 DUP8 DUP3 DUP9 ADD PUSH3 0x33B JUMP JUMPDEST SWAP3 POP POP PUSH1 0x60 PUSH3 0x3B8 DUP8 DUP3 DUP9 ADD PUSH3 0x33B JUMP JUMPDEST SWAP2 POP POP SWAP3 SWAP6 SWAP2 SWAP5 POP SWAP3 POP JUMP JUMPDEST PUSH3 0x3CF DUP2 PUSH3 0x2D2 JUMP JUMPDEST DUP3 MSTORE POP POP JUMP JUMPDEST PUSH3 0x3E0 DUP2 PUSH3 0x317 JUMP JUMPDEST DUP3 MSTORE POP POP JUMP JUMPDEST PUSH1 0x0 PUSH1 0x40 DUP3 ADD SWAP1 POP PUSH3 0x3FD PUSH1 0x0 DUP4 ADD DUP6 PUSH3 0x3C4 JUMP JUMPDEST PUSH3 0x40C PUSH1 0x20 DUP4 ADD DUP5 PUSH3 0x3D5 JUMP JUMPDEST SWAP4 SWAP3 POP POP POP JUMP JUMPDEST PUSH32 0x4E487B7100000000000000000000000000000000000000000000000000000000 PUSH1 0x0 MSTORE PUSH1 0x11 PUSH1 0x4 MSTORE PUSH1 0x24 PUSH1 0x0 REVERT JUMPDEST PUSH1 0x0 PUSH3 0x44F DUP3 PUSH3 0x317 JUMP JUMPDEST SWAP2 POP PUSH3 0x45C DUP4 PUSH3 0x317 JUMP JUMPDEST SWAP3 POP DUP3 DUP3 ADD SWAP1 POP DUP1 DUP3 GT ISZERO PUSH3 0x477 JUMPI PUSH3 0x476 PUSH3 0x413 JUMP JUMPDEST JUMPDEST SWAP3 SWAP2 POP POP JUMP JUMPDEST PUSH2 0x1254 DUP1 PUSH3 0x48D PUSH1 0x0 CODECOPY PUSH1 0x0 RETURN INVALID PUSH1 0x80 PUSH1 0x40 MSTORE CALLVALUE DUP1 ISZERO PUSH2 0x10 JUMPI PUSH1 0x0 DUP1 REVERT JUMPDEST POP PUSH1 0x4 CALLDATASIZE LT PUSH2 0x4C JUMPI PUSH1 0x0 CALLDATALOAD PUSH1 0xE0 SHR DUP1 PUSH4 0x18160DDD EQ PUSH2 0x51 JUMPI DUP1 PUSH4 0x90B0B721 EQ PUSH2 0x6F JUMPI DUP1 PUSH4 0x9CD441DA EQ PUSH2 0x9F JUMPI DUP1 PUSH4 0xFCEE45F4 EQ PUSH2 0xBB JUMPI JUMPDEST PUSH1 0x0 DUP1 REVERT JUMPDEST PUSH2 0x59 PUSH2 0xEB JUMP JUMPDEST PUSH1 0x40 MLOAD PUSH2 0x66 SWAP2 SWAP1 PUSH2 0x927 JUMP JUMPDEST PUSH1 0x40 MLOAD DUP1 SWAP2 SUB SWAP1 RETURN JUMPDEST PUSH2 0x89 PUSH1 0x4 DUP1 CALLDATASIZE SUB DUP2 ADD SWAP1 PUSH2 0x84 SWAP2 SWAP1 PUSH2 0xB26 JUMP JUMPDEST PUSH2 0xF1 JUMP JUMPDEST PUSH1 0x40 MLOAD PUSH2 0x96 SWAP2 SWAP1 PUSH2 0x927 JUMP JUMPDEST PUSH1 0x40 MLOAD DUP1 SWAP2 SUB SWAP1 RETURN JUMPDEST PUSH2 0xB9 PUSH1 0x4 DUP1 CALLDATASIZE SUB DUP2 ADD SWAP1 PUSH2 0xB4 SWAP2 SWAP1 PUSH2 0xBC5 JUMP JUMPDEST PUSH2 0x656 JUMP JUMPDEST STOP JUMPDEST PUSH2 0xD5 PUSH1 0x4 DUP1 CALLDATASIZE SUB DUP2 ADD SWAP1 PUSH2 0xD0 SWAP2 SWAP1 PUSH2 0xC05 JUMP JUMPDEST PUSH2 0x8EA JUMP JUMPDEST PUSH1 0x40 MLOAD PUSH2 0xE2 SWAP2 SWAP1 PUSH2 0x927 JUMP JUMPDEST PUSH1 0x40 MLOAD DUP1 SWAP2 SUB SWAP1 RETURN JUMPDEST PUSH1 0x3 SLOAD DUP2 JUMP JUMPDEST PUSH1 0x0 DUP1 PUSH1 0x0 PUSH1 0x40 MLOAD PUSH1 0x20 ADD PUSH2 0x105 SWAP1 PUSH2 0xC89 JUMP JUMPDEST PUSH1 0x40 MLOAD PUSH1 0x20 DUP2 DUP4 SUB SUB DUP2 MSTORE SWAP1 PUSH1 0x40 MSTORE DUP1 MLOAD SWAP1 PUSH1 0x20 ADD KECCAK256 DUP7 PUSH1 0x40 MLOAD PUSH1 0x20 ADD PUSH2 0x12C SWAP2 SWAP1 PUSH2 0xD04 JUMP JUMPDEST PUSH1 0x40 MLOAD PUSH1 0x20 DUP2 DUP4 SUB SUB DUP2 MSTORE SWAP1 PUSH1 0x40 MSTORE DUP1 MLOAD SWAP1 PUSH1 0x20 ADD KECCAK256 SUB PUSH2 0x194 JUMPI PUSH1 0x0 DUP1 SLOAD SWAP1 PUSH2 0x100 EXP SWAP1 DIV PUSH20 0xFFFFFFFFFFFFFFFFFFFFFFFFFFFFFFFFFFFFFFFF AND SWAP2 POP PUSH1 0x1 PUSH1 0x0 SWAP1 SLOAD SWAP1 PUSH2 0x100 EXP SWAP1 DIV PUSH20 0xFFFFFFFFFFFFFFFFFFFFFFFFFFFFFFFFFFFFFFFF AND SWAP1 POP PUSH2 0x1DD JUMP JUMPDEST PUSH1 0x1 PUSH1 0x0 SWAP1 SLOAD SWAP1 PUSH2 0x100 EXP SWAP1 DIV PUSH20 0xFFFFFFFFFFFFFFFFFFFFFFFFFFFFFFFFFFFFFFFF AND SWAP2 POP PUSH1 0x0 DUP1 SLOAD SWAP1 PUSH2 0x100 EXP SWAP1 DIV PUSH20 0xFFFFFFFFFFFFFFFFFFFFFFFFFFFFFFFFFFFFFFFF AND SWAP1 POP JUMPDEST DUP4 DUP3 PUSH20 0xFFFFFFFFFFFFFFFFFFFFFFFFFFFFFFFFFFFFFFFF AND PUSH4 0x70A08231 DUP10 PUSH1 0x40 MLOAD DUP3 PUSH4 0xFFFFFFFF AND PUSH1 0xE0 SHL DUP2 MSTORE PUSH1 0x4 ADD PUSH2 0x217 SWAP2 SWAP1 PUSH2 0xD2A JUMP JUMPDEST PUSH1 0x20 PUSH1 0x40 MLOAD DUP1 DUP4 SUB DUP2 DUP7 GAS STATICCALL ISZERO DUP1 ISZERO PUSH2 0x234 JUMPI RETURNDATASIZE PUSH1 0x0 DUP1 RETURNDATACOPY RETURNDATASIZE PUSH1 0x0 REVERT JUMPDEST POP POP POP POP PUSH1 0x40 MLOAD RETURNDATASIZE PUSH1 0x1F NOT PUSH1 0x1F DUP3 ADD AND DUP3 ADD DUP1 PUSH1 0x40 MSTORE POP DUP2 ADD SWAP1 PUSH2 0x258 SWAP2 SWAP1 PUSH2 0xD5A JUMP JUMPDEST LT ISZERO PUSH2 0x299 JUMPI PUSH1 0x40 MLOAD PUSH32 0x8C379A000000000000000000000000000000000000000000000000000000000 DUP2 MSTORE PUSH1 0x4 ADD PUSH2 0x290 SWAP1 PUSH2 0xDE4 JUMP JUMPDEST PUSH1 0x40 MLOAD DUP1 SWAP2 SUB SWAP1 REVERT JUMPDEST DUP2 PUSH20 0xFFFFFFFFFFFFFFFFFFFFFFFFFFFFFFFFFFFFFFFF AND PUSH4 0x23B872DD DUP9 ADDRESS DUP8 PUSH1 0x40 MLOAD DUP5 PUSH4 0xFFFFFFFF AND PUSH1 0xE0 SHL DUP2 MSTORE PUSH1 0x4 ADD PUSH2 0x2D6 SWAP4 SWAP3 SWAP2 SWAP1 PUSH2 0xE04 JUMP JUMPDEST PUSH1 0x20 PUSH1 0x40 MLOAD DUP1 DUP4 SUB DUP2 PUSH1 0x0 DUP8 GAS CALL ISZERO DUP1 ISZERO PUSH2 0x2F5 JUMPI RETURNDATASIZE PUSH1 0x0 DUP1 RETURNDATACOPY RETURNDATASIZE PUSH1 0x0 REVERT JUMPDEST POP POP POP POP PUSH1 0x40 MLOAD RETURNDATASIZE PUSH1 0x1F NOT PUSH1 0x1F DUP3 ADD AND DUP3 ADD DUP1 PUSH1 0x40 MSTORE POP DUP2 ADD SWAP1 PUSH2 0x319 SWAP2 SWAP1 PUSH2 0xE73 JUMP JUMPDEST PUSH2 0x358 JUMPI PUSH1 0x40 MLOAD PUSH32 0x8C379A000000000000000000000000000000000000000000000000000000000 DUP2 MSTORE PUSH1 0x4 ADD PUSH2 0x34F SWAP1 PUSH2 0xEEC JUMP JUMPDEST PUSH1 0x40 MLOAD DUP1 SWAP2 SUB SWAP1 REVERT JUMPDEST PUSH1 0x0 PUSH2 0x363 DUP6 PUSH2 0x8EA JUMP JUMPDEST SWAP1 POP PUSH1 0x0 DUP2 DUP7 PUSH2 0x373 SWAP2 SWAP1 PUSH2 0xF3B JUMP JUMPDEST SWAP1 POP PUSH1 0x0 DUP2 DUP6 PUSH20 0xFFFFFFFFFFFFFFFFFFFFFFFFFFFFFFFFFFFFFFFF AND PUSH4 0x70A08231 ADDRESS PUSH1 0x40 MLOAD DUP3 PUSH4 0xFFFFFFFF AND PUSH1 0xE0 SHL DUP2 MSTORE PUSH1 0x4 ADD PUSH2 0x3B1 SWAP2 SWAP1 PUSH2 0xD2A JUMP JUMPDEST PUSH1 0x20 PUSH1 0x40 MLOAD DUP1 DUP4 SUB DUP2 DUP7 GAS STATICCALL ISZERO DUP1 ISZERO PUSH2 0x3CE JUMPI RETURNDATASIZE PUSH1 0x0 DUP1 RETURNDATACOPY RETURNDATASIZE PUSH1 0x0 REVERT JUMPDEST POP POP POP POP PUSH1 0x40 MLOAD RETURNDATASIZE PUSH1 0x1F NOT PUSH1 0x1F DUP3 ADD AND DUP3 ADD DUP1 PUSH1 0x40 MSTORE POP DUP2 ADD SWAP1 PUSH2 0x3F2 SWAP2 SWAP1 PUSH2 0xD5A JUMP JUMPDEST PUSH2 0x3FC SWAP2 SWAP1 PUSH2 0xF6F JUMP JUMPDEST DUP5 PUSH20 0xFFFFFFFFFFFFFFFFFFFFFFFFFFFFFFFFFFFFFFFF AND PUSH4 0x70A08231 ADDRESS PUSH1 0x40 MLOAD DUP3 PUSH4 0xFFFFFFFF AND PUSH1 0xE0 SHL DUP2 MSTORE PUSH1 0x4 ADD PUSH2 0x435 SWAP2 SWAP1 PUSH2 0xD2A JUMP JUMPDEST PUSH1 0x20 PUSH1 0x40 MLOAD DUP1 DUP4 SUB DUP2 DUP7 GAS STATICCALL ISZERO DUP1 ISZERO PUSH2 0x452 JUMPI RETURNDATASIZE PUSH1 0x0 DUP1 RETURNDATACOPY RETURNDATASIZE PUSH1 0x0 REVERT JUMPDEST POP POP POP POP PUSH1 0x40 MLOAD RETURNDATASIZE PUSH1 0x1F NOT PUSH1 0x1F DUP3 ADD AND DUP3 ADD DUP1 PUSH1 0x40 MSTORE POP DUP2 ADD SWAP1 PUSH2 0x476 SWAP2 SWAP1 PUSH2 0xD5A JUMP JUMPDEST DUP4 PUSH2 0x481 SWAP2 SWAP1 PUSH2 0xFA3 JUMP JUMPDEST PUSH2 0x48B SWAP2 SWAP1 PUSH2 0x1014 JUMP JUMPDEST SWAP1 POP DUP4 PUSH20 0xFFFFFFFFFFFFFFFFFFFFFFFFFFFFFFFFFFFFFFFF AND PUSH4 0xA9059CBB DUP12 DUP4 PUSH1 0x40 MLOAD DUP4 PUSH4 0xFFFFFFFF AND PUSH1 0xE0 SHL DUP2 MSTORE PUSH1 0x4 ADD PUSH2 0x4C8 SWAP3 SWAP2 SWAP1 PUSH2 0x1045 JUMP JUMPDEST PUSH1 0x20 PUSH1 0x40 MLOAD DUP1 DUP4 SUB DUP2 PUSH1 0x0 DUP8 GAS CALL ISZERO DUP1 ISZERO PUSH2 0x4E7 JUMPI RETURNDATASIZE PUSH1 0x0 DUP1 RETURNDATACOPY RETURNDATASIZE PUSH1 0x0 REVERT JUMPDEST POP POP POP POP PUSH1 0x40 MLOAD RETURNDATASIZE PUSH1 0x1F NOT PUSH1 0x1F DUP3 ADD AND DUP3 ADD DUP1 PUSH1 0x40 MSTORE POP DUP2 ADD SWAP1 PUSH2 0x50B SWAP2 SWAP1 PUSH2 0xE73 JUMP JUMPDEST PUSH2 0x54A JUMPI PUSH1 0x40 MLOAD PUSH32 0x8C379A000000000000000000000000000000000000000000000000000000000 DUP2 MSTORE PUSH1 0x4 ADD PUSH2 0x541 SWAP1 PUSH2 0x10BA JUMP JUMPDEST PUSH1 0x40 MLOAD DUP1 SWAP2 SUB SWAP1 REVERT JUMPDEST PUSH1 0x0 DUP4 GT ISZERO PUSH2 0x646 JUMPI PUSH1 0x0 PUSH20 0xFFFFFFFFFFFFFFFFFFFFFFFFFFFFFFFFFFFFFFFF AND DUP6 PUSH20 0xFFFFFFFFFFFFFFFFFFFFFFFFFFFFFFFFFFFFFFFF AND EQ PUSH2 0x645 JUMPI DUP5 PUSH20 0xFFFFFFFFFFFFFFFFFFFFFFFFFFFFFFFFFFFFFFFF AND PUSH4 0xA9059CBB ADDRESS DUP6 PUSH1 0x40 MLOAD DUP4 PUSH4 0xFFFFFFFF AND PUSH1 0xE0 SHL DUP2 MSTORE PUSH1 0x4 ADD PUSH2 0x5C2 SWAP3 SWAP2 SWAP1 PUSH2 0x1045 JUMP JUMPDEST PUSH1 0x20 PUSH1 0x40 MLOAD DUP1 DUP4 SUB DUP2 PUSH1 0x0 DUP8 GAS CALL ISZERO DUP1 ISZERO PUSH2 0x5E1 JUMPI RETURNDATASIZE PUSH1 0x0 DUP1 RETURNDATACOPY RETURNDATASIZE PUSH1 0x0 REVERT JUMPDEST POP POP POP POP PUSH1 0x40 MLOAD RETURNDATASIZE PUSH1 0x1F NOT PUSH1 0x1F DUP3 ADD AND DUP3 ADD DUP1 PUSH1 0x40 MSTORE POP DUP2 ADD SWAP1 PUSH2 0x605 SWAP2 SWAP1 PUSH2 0xE73 JUMP JUMPDEST PUSH2 0x644 JUMPI PUSH1 0x40 MLOAD PUSH32 0x8C379A000000000000000000000000000000000000000000000000000000000 DUP2 MSTORE PUSH1 0x4 ADD PUSH2 0x63B SWAP1 PUSH2 0x1126 JUMP JUMPDEST PUSH1 0x40 MLOAD DUP1 SWAP2 SUB SWAP1 REVERT JUMPDEST JUMPDEST JUMPDEST DUP1 SWAP6 POP POP POP POP POP POP SWAP5 SWAP4 POP POP POP POP JUMP JUMPDEST PUSH1 0x0 PUSH20 0xFFFFFFFFFFFFFFFFFFFFFFFFFFFFFFFFFFFFFFFF AND PUSH1 0x0 DUP1 SLOAD SWAP1 PUSH2 0x100 EXP SWAP1 DIV PUSH20 0xFFFFFFFFFFFFFFFFFFFFFFFFFFFFFFFFFFFFFFFF AND PUSH20 0xFFFFFFFFFFFFFFFFFFFFFFFFFFFFFFFFFFFFFFFF AND EQ PUSH2 0x78A JUMPI PUSH1 0x0 DUP1 SLOAD SWAP1 PUSH2 0x100 EXP SWAP1 DIV PUSH20 0xFFFFFFFFFFFFFFFFFFFFFFFFFFFFFFFFFFFFFFFF AND PUSH20 0xFFFFFFFFFFFFFFFFFFFFFFFFFFFFFFFFFFFFFFFF AND PUSH4 0x23B872DD CALLER ADDRESS DUP6 PUSH1 0x40 MLOAD DUP5 PUSH4 0xFFFFFFFF AND PUSH1 0xE0 SHL DUP2 MSTORE PUSH1 0x4 ADD PUSH2 0x707 SWAP4 SWAP3 SWAP2 SWAP1 PUSH2 0xE04 JUMP JUMPDEST PUSH1 0x20 PUSH1 0x40 MLOAD DUP1 DUP4 SUB DUP2 PUSH1 0x0 DUP8 GAS CALL ISZERO DUP1 ISZERO PUSH2 0x726 JUMPI RETURNDATASIZE PUSH1 0x0 DUP1 RETURNDATACOPY RETURNDATASIZE PUSH1 0x0 REVERT JUMPDEST POP POP POP POP PUSH1 0x40 MLOAD RETURNDATASIZE PUSH1 0x1F NOT PUSH1 0x1F DUP3 ADD AND DUP3 ADD DUP1 PUSH1 0x40 MSTORE POP DUP2 ADD SWAP1 PUSH2 0x74A SWAP2 SWAP1 PUSH2 0xE73 JUMP JUMPDEST PUSH2 0x789 JUMPI PUSH1 0x40 MLOAD PUSH32 0x8C379A000000000000000000000000000000000000000000000000000000000 DUP2 MSTORE PUSH1 0x4 ADD PUSH2 0x780 SWAP1 PUSH2 0x1192 JUMP JUMPDEST PUSH1 0x40 MLOAD DUP1 SWAP2 SUB SWAP1 REVERT JUMPDEST JUMPDEST PUSH1 0x0 PUSH20 0xFFFFFFFFFFFFFFFFFFFFFFFFFFFFFFFFFFFFFFFF AND PUSH1 0x1 PUSH1 0x0 SWAP1 SLOAD SWAP1 PUSH2 0x100 EXP SWAP1 DIV PUSH20 0xFFFFFFFFFFFFFFFFFFFFFFFFFFFFFFFFFFFFFFFF AND PUSH20 0xFFFFFFFFFFFFFFFFFFFFFFFFFFFFFFFFFFFFFFFF AND EQ PUSH2 0x8C2 JUMPI PUSH1 0x1 PUSH1 0x0 SWAP1 SLOAD SWAP1 PUSH2 0x100 EXP SWAP1 DIV PUSH20 0xFFFFFFFFFFFFFFFFFFFFFFFFFFFFFFFFFFFFFFFF AND PUSH20 0xFFFFFFFFFFFFFFFFFFFFFFFFFFFFFFFFFFFFFFFF AND PUSH4 0x23B872DD CALLER ADDRESS DUP5 PUSH1 0x40 MLOAD DUP5 PUSH4 0xFFFFFFFF AND PUSH1 0xE0 SHL DUP2 MSTORE PUSH1 0x4 ADD PUSH2 0x83F SWAP4 SWAP3 SWAP2 SWAP1 PUSH2 0xE04 JUMP JUMPDEST PUSH1 0x20 PUSH1 0x40 MLOAD DUP1 DUP4 SUB DUP2 PUSH1 0x0 DUP8 GAS CALL ISZERO DUP1 ISZERO PUSH2 0x85E JUMPI RETURNDATASIZE PUSH1 0x0 DUP1 RETURNDATACOPY RETURNDATASIZE PUSH1 0x0 REVERT JUMPDEST POP POP POP POP PUSH1 0x40 MLOAD RETURNDATASIZE PUSH1 0x1F NOT PUSH1 0x1F DUP3 ADD AND DUP3 ADD DUP1 PUSH1 0x40 MSTORE POP DUP2 ADD SWAP1 PUSH2 0x882 SWAP2 SWAP1 PUSH2 0xE73 JUMP JUMPDEST PUSH2 0x8C1 JUMPI PUSH1 0x40 MLOAD PUSH32 0x8C379A000000000000000000000000000000000000000000000000000000000 DUP2 MSTORE PUSH1 0x4 ADD PUSH2 0x8B8 SWAP1 PUSH2 0x11FE JUMP JUMPDEST PUSH1 0x40 MLOAD DUP1 SWAP2 SUB SWAP1 REVERT JUMPDEST JUMPDEST DUP1 DUP3 PUSH2 0x8CE SWAP2 SWAP1 PUSH2 0xF6F JUMP JUMPDEST PUSH1 0x3 PUSH1 0x0 DUP3 DUP3 SLOAD PUSH2 0x8DF SWAP2 SWAP1 PUSH2 0xF6F JUMP JUMPDEST SWAP3 POP POP DUP2 SWAP1 SSTORE POP POP POP JUMP JUMPDEST PUSH1 0x0 PUSH2 0x2710 PUSH1 0x2 SLOAD DUP4 PUSH2 0x8FD SWAP2 SWAP1 PUSH2 0xFA3 JUMP JUMPDEST PUSH2 0x907 SWAP2 SWAP1 PUSH2 0x1014 JUMP JUMPDEST SWAP1 POP SWAP2 SWAP1 POP JUMP JUMPDEST PUSH1 0x0 DUP2 SWAP1 POP SWAP2 SWAP1 POP JUMP JUMPDEST PUSH2 0x921 DUP2 PUSH2 0x90E JUMP JUMPDEST DUP3 MSTORE POP POP JUMP JUMPDEST PUSH1 0x0 PUSH1 0x20 DUP3 ADD SWAP1 POP PUSH2 0x93C PUSH1 0x0 DUP4 ADD DUP5 PUSH2 0x918 JUMP JUMPDEST SWAP3 SWAP2 POP POP JUMP JUMPDEST PUSH1 0x0 PUSH1 0x40 MLOAD SWAP1 POP SWAP1 JUMP JUMPDEST PUSH1 0x0 DUP1 REVERT JUMPDEST PUSH1 0x0 DUP1 REVERT JUMPDEST PUSH1 0x0 PUSH20 0xFFFFFFFFFFFFFFFFFFFFFFFFFFFFFFFFFFFFFFFF DUP3 AND SWAP1 POP SWAP2 SWAP1 POP JUMP JUMPDEST PUSH1 0x0 PUSH2 0x981 DUP3 PUSH2 0x956 JUMP JUMPDEST SWAP1 POP SWAP2 SWAP1 POP JUMP JUMPDEST PUSH2 0x991 DUP2 PUSH2 0x976 JUMP JUMPDEST DUP2 EQ PUSH2 0x99C JUMPI PUSH1 0x0 DUP1 REVERT JUMPDEST POP JUMP JUMPDEST PUSH1 0x0 DUP2 CALLDATALOAD SWAP1 POP PUSH2 0x9AE DUP2 PUSH2 0x988 JUMP JUMPDEST SWAP3 SWAP2 POP POP JUMP JUMPDEST PUSH1 0x0 DUP1 REVERT JUMPDEST PUSH1 0x0 DUP1 REVERT JUMPDEST PUSH1 0x0 PUSH1 0x1F NOT PUSH1 0x1F DUP4 ADD AND SWAP1 POP SWAP2 SWAP1 POP JUMP JUMPDEST PUSH32 0x4E487B7100000000000000000000000000000000000000000000000000000000 PUSH1 0x0 MSTORE PUSH1 0x41 PUSH1 0x4 MSTORE PUSH1 0x24 PUSH1 0x0 REVERT JUMPDEST PUSH2 0xA07 DUP3 PUSH2 0x9BE JUMP JUMPDEST DUP2 ADD DUP2 DUP2 LT PUSH8 0xFFFFFFFFFFFFFFFF DUP3 GT OR ISZERO PUSH2 0xA26 JUMPI PUSH2 0xA25 PUSH2 0x9CF JUMP JUMPDEST JUMPDEST DUP1 PUSH1 0x40 MSTORE POP POP POP JUMP JUMPDEST PUSH1 0x0 PUSH2 0xA39 PUSH2 0x942 JUMP JUMPDEST SWAP1 POP PUSH2 0xA45 DUP3 DUP3 PUSH2 0x9FE JUMP JUMPDEST SWAP2 SWAP1 POP JUMP JUMPDEST PUSH1 0x0 PUSH8 0xFFFFFFFFFFFFFFFF DUP3 GT ISZERO PUSH2 0xA65 JUMPI PUSH2 0xA64 PUSH2 0x9CF JUMP JUMPDEST JUMPDEST PUSH2 0xA6E DUP3 PUSH2 0x9BE JUMP JUMPDEST SWAP1 POP PUSH1 0x20 DUP2 ADD SWAP1 POP SWAP2 SWAP1 POP JUMP JUMPDEST DUP3 DUP2 DUP4 CALLDATACOPY PUSH1 0x0 DUP4 DUP4 ADD MSTORE POP POP POP JUMP JUMPDEST PUSH1 0x0 PUSH2 0xA9D PUSH2 0xA98 DUP5 PUSH2 0xA4A JUMP JUMPDEST PUSH2 0xA2F JUMP JUMPDEST SWAP1 POP DUP3 DUP2 MSTORE PUSH1 0x20 DUP2 ADD DUP5 DUP5 DUP5 ADD GT ISZERO PUSH2 0xAB9 JUMPI PUSH2 0xAB8 PUSH2 0x9B9 JUMP JUMPDEST JUMPDEST PUSH2 0xAC4 DUP5 DUP3 DUP6 PUSH2 0xA7B JUMP JUMPDEST POP SWAP4 SWAP3 POP POP POP JUMP JUMPDEST PUSH1 0x0 DUP3 PUSH1 0x1F DUP4 ADD SLT PUSH2 0xAE1 JUMPI PUSH2 0xAE0 PUSH2 0x9B4 JUMP JUMPDEST JUMPDEST DUP2 CALLDATALOAD PUSH2 0xAF1 DUP5 DUP3 PUSH1 0x20 DUP7 ADD PUSH2 0xA8A JUMP JUMPDEST SWAP2 POP POP SWAP3 SWAP2 POP POP JUMP JUMPDEST PUSH2 0xB03 DUP2 PUSH2 0x90E JUMP JUMPDEST DUP2 EQ PUSH2 0xB0E JUMPI PUSH1 0x0 DUP1 REVERT JUMPDEST POP JUMP JUMPDEST PUSH1 0x0 DUP2 CALLDATALOAD SWAP1 POP PUSH2 0xB20 DUP2 PUSH2 0xAFA JUMP JUMPDEST SWAP3 SWAP2 POP POP JUMP JUMPDEST PUSH1 0x0 DUP1 PUSH1 0x0 DUP1 PUSH1 0x80 DUP6 DUP8 SUB SLT ISZERO PUSH2 0xB40 JUMPI PUSH2 0xB3F PUSH2 0x94C JUMP JUMPDEST JUMPDEST PUSH1 0x0 PUSH2 0xB4E DUP8 DUP3 DUP9 ADD PUSH2 0x99F JUMP JUMPDEST SWAP5 POP POP PUSH1 0x20 DUP6 ADD CALLDATALOAD PUSH8 0xFFFFFFFFFFFFFFFF DUP2 GT ISZERO PUSH2 0xB6F JUMPI PUSH2 0xB6E PUSH2 0x951 JUMP JUMPDEST JUMPDEST PUSH2 0xB7B DUP8 DUP3 DUP9 ADD PUSH2 0xACC JUMP JUMPDEST SWAP4 POP POP PUSH1 0x40 DUP6 ADD CALLDATALOAD PUSH8 0xFFFFFFFFFFFFFFFF DUP2 GT ISZERO PUSH2 0xB9C JUMPI PUSH2 0xB9B PUSH2 0x951 JUMP JUMPDEST JUMPDEST PUSH2 0xBA8 DUP8 DUP3 DUP9 ADD PUSH2 0xACC JUMP JUMPDEST SWAP3 POP POP PUSH1 0x60 PUSH2 0xBB9 DUP8 DUP3 DUP9 ADD PUSH2 0xB11 JUMP JUMPDEST SWAP2 POP POP SWAP3 SWAP6 SWAP2 SWAP5 POP SWAP3 POP JUMP JUMPDEST PUSH1 0x0 DUP1 PUSH1 0x40 DUP4 DUP6 SUB SLT ISZERO PUSH2 0xBDC JUMPI PUSH2 0xBDB PUSH2 0x94C JUMP JUMPDEST JUMPDEST PUSH1 0x0 PUSH2 0xBEA DUP6 DUP3 DUP7 ADD PUSH2 0xB11 JUMP JUMPDEST SWAP3 POP POP PUSH1 0x20 PUSH2 0xBFB DUP6 DUP3 DUP7 ADD PUSH2 0xB11 JUMP JUMPDEST SWAP2 POP POP SWAP3 POP SWAP3 SWAP1 POP JUMP JUMPDEST PUSH1 0x0 PUSH1 0x20 DUP3 DUP5 SUB SLT ISZERO PUSH2 0xC1B JUMPI PUSH2 0xC1A PUSH2 0x94C JUMP JUMPDEST JUMPDEST PUSH1 0x0 PUSH2 0xC29 DUP5 DUP3 DUP6 ADD PUSH2 0xB11 JUMP JUMPDEST SWAP2 POP POP SWAP3 SWAP2 POP POP JUMP JUMPDEST PUSH1 0x0 DUP2 SWAP1 POP SWAP3 SWAP2 POP POP JUMP JUMPDEST PUSH32 0x746F6B656E410000000000000000000000000000000000000000000000000000 PUSH1 0x0 DUP3 ADD MSTORE POP JUMP JUMPDEST PUSH1 0x0 PUSH2 0xC73 PUSH1 0x6 DUP4 PUSH2 0xC32 JUMP JUMPDEST SWAP2 POP PUSH2 0xC7E DUP3 PUSH2 0xC3D JUMP JUMPDEST PUSH1 0x6 DUP3 ADD SWAP1 POP SWAP2 SWAP1 POP JUMP JUMPDEST PUSH1 0x0 PUSH2 0xC94 DUP3 PUSH2 0xC66 JUMP JUMPDEST SWAP2 POP DUP2 SWAP1 POP SWAP2 SWAP1 POP JUMP JUMPDEST PUSH1 0x0 DUP2 MLOAD SWAP1 POP SWAP2 SWAP1 POP JUMP JUMPDEST PUSH1 0x0 JUMPDEST DUP4 DUP2 LT ISZERO PUSH2 0xCC7 JUMPI DUP1 DUP3 ADD MLOAD DUP2 DUP5 ADD MSTORE PUSH1 0x20 DUP2 ADD SWAP1 POP PUSH2 0xCAC JUMP JUMPDEST PUSH1 0x0 DUP5 DUP5 ADD MSTORE POP POP POP POP JUMP JUMPDEST PUSH1 0x0 PUSH2 0xCDE DUP3 PUSH2 0xC9E JUMP JUMPDEST PUSH2 0xCE8 DUP2 DUP6 PUSH2 0xC32 JUMP JUMPDEST SWAP4 POP PUSH2 0xCF8 DUP2 DUP6 PUSH1 0x20 DUP7 ADD PUSH2 0xCA9 JUMP JUMPDEST DUP1 DUP5 ADD SWAP2 POP POP SWAP3 SWAP2 POP POP JUMP JUMPDEST PUSH1 0x0 PUSH2 0xD10 DUP3 DUP5 PUSH2 0xCD3 JUMP JUMPDEST SWAP2 POP DUP2 SWAP1 POP SWAP3 SWAP2 POP POP JUMP JUMPDEST PUSH2 0xD24 DUP2 PUSH2 0x976 JUMP JUMPDEST DUP3 MSTORE POP POP JUMP JUMPDEST PUSH1 0x0 PUSH1 0x20 DUP3 ADD SWAP1 POP PUSH2 0xD3F PUSH1 0x0 DUP4 ADD DUP5 PUSH2 0xD1B JUMP JUMPDEST SWAP3 SWAP2 POP POP JUMP JUMPDEST PUSH1 0x0 DUP2 MLOAD SWAP1 POP PUSH2 0xD54 DUP2 PUSH2 0xAFA JUMP JUMPDEST SWAP3 SWAP2 POP POP JUMP JUMPDEST PUSH1 0x0 PUSH1 0x20 DUP3 DUP5 SUB SLT ISZERO PUSH2 0xD70 JUMPI PUSH2 0xD6F PUSH2 0x94C JUMP JUMPDEST JUMPDEST PUSH1 0x0 PUSH2 0xD7E DUP5 DUP3 DUP6 ADD PUSH2 0xD45 JUMP JUMPDEST SWAP2 POP POP SWAP3 SWAP2 POP POP JUMP JUMPDEST PUSH1 0x0 DUP3 DUP3 MSTORE PUSH1 0x20 DUP3 ADD SWAP1 POP SWAP3 SWAP2 POP POP JUMP JUMPDEST PUSH32 0x496E73756666696369656E742062616C616E6365000000000000000000000000 PUSH1 0x0 DUP3 ADD MSTORE POP JUMP JUMPDEST PUSH1 0x0 PUSH2 0xDCE PUSH1 0x14 DUP4 PUSH2 0xD87 JUMP JUMPDEST SWAP2 POP PUSH2 0xDD9 DUP3 PUSH2 0xD98 JUMP JUMPDEST PUSH1 0x20 DUP3 ADD SWAP1 POP SWAP2 SWAP1 POP JUMP JUMPDEST PUSH1 0x0 PUSH1 0x20 DUP3 ADD SWAP1 POP DUP2 DUP2 SUB PUSH1 0x0 DUP4 ADD MSTORE PUSH2 0xDFD DUP2 PUSH2 0xDC1 JUMP JUMPDEST SWAP1 POP SWAP2 SWAP1 POP JUMP JUMPDEST PUSH1 0x0 PUSH1 0x60 DUP3 ADD SWAP1 POP PUSH2 0xE19 PUSH1 0x0 DUP4 ADD DUP7 PUSH2 0xD1B JUMP JUMPDEST PUSH2 0xE26 PUSH1 0x20 DUP4 ADD DUP6 PUSH2 0xD1B JUMP JUMPDEST PUSH2 0xE33 PUSH1 0x40 DUP4 ADD DUP5 PUSH2 0x918 JUMP JUMPDEST SWAP5 SWAP4 POP POP POP POP JUMP JUMPDEST PUSH1 0x0 DUP2 ISZERO ISZERO SWAP1 POP SWAP2 SWAP1 POP JUMP JUMPDEST PUSH2 0xE50 DUP2 PUSH2 0xE3B JUMP JUMPDEST DUP2 EQ PUSH2 0xE5B JUMPI PUSH1 0x0 DUP1 REVERT JUMPDEST POP JUMP JUMPDEST PUSH1 0x0 DUP2 MLOAD SWAP1 POP PUSH2 0xE6D DUP2 PUSH2 0xE47 JUMP JUMPDEST SWAP3 SWAP2 POP POP JUMP JUMPDEST PUSH1 0x0 PUSH1 0x20 DUP3 DUP5 SUB SLT ISZERO PUSH2 0xE89 JUMPI PUSH2 0xE88 PUSH2 0x94C JUMP JUMPDEST JUMPDEST PUSH1 0x0 PUSH2 0xE97 DUP5 DUP3 DUP6 ADD PUSH2 0xE5E JUMP JUMPDEST SWAP2 POP POP SWAP3 SWAP2 POP POP JUMP JUMPDEST PUSH32 0x5472616E73666572206661696C656420666F7220746F6B656E46726F6D000000 PUSH1 0x0 DUP3 ADD MSTORE POP JUMP JUMPDEST PUSH1 0x0 PUSH2 0xED6 PUSH1 0x1D DUP4 PUSH2 0xD87 JUMP JUMPDEST SWAP2 POP PUSH2 0xEE1 DUP3 PUSH2 0xEA0 JUMP JUMPDEST PUSH1 0x20 DUP3 ADD SWAP1 POP SWAP2 SWAP1 POP JUMP JUMPDEST PUSH1 0x0 PUSH1 0x20 DUP3 ADD SWAP1 POP DUP2 DUP2 SUB PUSH1 0x0 DUP4 ADD MSTORE PUSH2 0xF05 DUP2 PUSH2 0xEC9 JUMP JUMPDEST SWAP1 POP SWAP2 SWAP1 POP JUMP JUMPDEST PUSH32 0x4E487B7100000000000000000000000000000000000000000000000000000000 PUSH1 0x0 MSTORE PUSH1 0x11 PUSH1 0x4 MSTORE PUSH1 0x24 PUSH1 0x0 REVERT JUMPDEST PUSH1 0x0 PUSH2 0xF46 DUP3 PUSH2 0x90E JUMP JUMPDEST SWAP2 POP PUSH2 0xF51 DUP4 PUSH2 0x90E JUMP JUMPDEST SWAP3 POP DUP3 DUP3 SUB SWAP1 POP DUP2 DUP2 GT ISZERO PUSH2 0xF69 JUMPI PUSH2 0xF68 PUSH2 0xF0C JUMP JUMPDEST JUMPDEST SWAP3 SWAP2 POP POP JUMP JUMPDEST PUSH1 0x0 PUSH2 0xF7A DUP3 PUSH2 0x90E JUMP JUMPDEST SWAP2 POP PUSH2 0xF85 DUP4 PUSH2 0x90E JUMP JUMPDEST SWAP3 POP DUP3 DUP3 ADD SWAP1 POP DUP1 DUP3 GT ISZERO PUSH2 0xF9D JUMPI PUSH2 0xF9C PUSH2 0xF0C JUMP JUMPDEST JUMPDEST SWAP3 SWAP2 POP POP JUMP JUMPDEST PUSH1 0x0 PUSH2 0xFAE DUP3 PUSH2 0x90E JUMP JUMPDEST SWAP2 POP PUSH2 0xFB9 DUP4 PUSH2 0x90E JUMP JUMPDEST SWAP3 POP DUP3 DUP3 MUL PUSH2 0xFC7 DUP2 PUSH2 0x90E JUMP JUMPDEST SWAP2 POP DUP3 DUP3 DIV DUP5 EQ DUP4 ISZERO OR PUSH2 0xFDE JUMPI PUSH2 0xFDD PUSH2 0xF0C JUMP JUMPDEST JUMPDEST POP SWAP3 SWAP2 POP POP JUMP JUMPDEST PUSH32 0x4E487B7100000000000000000000000000000000000000000000000000000000 PUSH1 0x0 MSTORE PUSH1 0x12 PUSH1 0x4 MSTORE PUSH1 0x24 PUSH1 0x0 REVERT JUMPDEST PUSH1 0x0 PUSH2 0x101F DUP3 PUSH2 0x90E JUMP JUMPDEST SWAP2 POP PUSH2 0x102A DUP4 PUSH2 0x90E JUMP JUMPDEST SWAP3 POP DUP3 PUSH2 0x103A JUMPI PUSH2 0x1039 PUSH2 0xFE5 JUMP JUMPDEST JUMPDEST DUP3 DUP3 DIV SWAP1 POP SWAP3 SWAP2 POP POP JUMP JUMPDEST PUSH1 0x0 PUSH1 0x40 DUP3 ADD SWAP1 POP PUSH2 0x105A PUSH1 0x0 DUP4 ADD DUP6 PUSH2 0xD1B JUMP JUMPDEST PUSH2 0x1067 PUSH1 0x20 DUP4 ADD DUP5 PUSH2 0x918 JUMP JUMPDEST SWAP4 SWAP3 POP POP POP JUMP JUMPDEST PUSH32 0x5472616E73666572206661696C656420666F7220746F6B656E546F0000000000 PUSH1 0x0 DUP3 ADD MSTORE POP JUMP JUMPDEST PUSH1 0x0 PUSH2 0x10A4 PUSH1 0x1B DUP4 PUSH2 0xD87 JUMP JUMPDEST SWAP2 POP PUSH2 0x10AF DUP3 PUSH2 0x106E JUMP JUMPDEST PUSH1 0x20 DUP3 ADD SWAP1 POP SWAP2 SWAP1 POP JUMP JUMPDEST PUSH1 0x0 PUSH1 0x20 DUP3 ADD SWAP1 POP DUP2 DUP2 SUB PUSH1 0x0 DUP4 ADD MSTORE PUSH2 0x10D3 DUP2 PUSH2 0x1097 JUMP JUMPDEST SWAP1 POP SWAP2 SWAP1 POP JUMP JUMPDEST PUSH32 0x5472616E73666572206661696C656420666F7220666565000000000000000000 PUSH1 0x0 DUP3 ADD MSTORE POP JUMP JUMPDEST PUSH1 0x0 PUSH2 0x1110 PUSH1 0x17 DUP4 PUSH2 0xD87 JUMP JUMPDEST SWAP2 POP PUSH2 0x111B DUP3 PUSH2 0x10DA JUMP JUMPDEST PUSH1 0x20 DUP3 ADD SWAP1 POP SWAP2 SWAP1 POP JUMP JUMPDEST PUSH1 0x0 PUSH1 0x20 DUP3 ADD SWAP1 POP DUP2 DUP2 SUB PUSH1 0x0 DUP4 ADD MSTORE PUSH2 0x113F DUP2 PUSH2 0x1103 JUMP JUMPDEST SWAP1 POP SWAP2 SWAP1 POP JUMP JUMPDEST PUSH32 0x5472616E73666572206661696C656420666F7220746F6B656E41000000000000 PUSH1 0x0 DUP3 ADD MSTORE POP JUMP JUMPDEST PUSH1 0x0 PUSH2 0x117C PUSH1 0x1A DUP4 PUSH2 0xD87 JUMP JUMPDEST SWAP2 POP PUSH2 0x1187 DUP3 PUSH2 0x1146 JUMP JUMPDEST PUSH1 0x20 DUP3 ADD SWAP1 POP SWAP2 SWAP1 POP JUMP JUMPDEST PUSH1 0x0 PUSH1 0x20 DUP3 ADD SWAP1 POP DUP2 DUP2 SUB PUSH1 0x0 DUP4 ADD MSTORE PUSH2 0x11AB DUP2 PUSH2 0x116F JUMP JUMPDEST SWAP1 POP SWAP2 SWAP1 POP JUMP JUMPDEST PUSH32 0x5472616E73666572206661696C656420666F7220746F6B656E42000000000000 PUSH1 0x0 DUP3 ADD MSTORE POP JUMP JUMPDEST PUSH1 0x0 PUSH2 0x11E8 PUSH1 0x1A DUP4 PUSH2 0xD87 JUMP JUMPDEST SWAP2 POP PUSH2 0x11F3 DUP3 PUSH2 0x11B2 JUMP JUMPDEST PUSH1 0x20 DUP3 ADD SWAP1 POP SWAP2 SWAP1 POP JUMP JUMPDEST PUSH1 0x0 PUSH1 0x20 DUP3 ADD SWAP1 POP DUP2 DUP2 SUB PUSH1 0x0 DUP4 ADD MSTORE PUSH2 0x1217 DUP2 PUSH2 0x11DB JUMP JUMPDEST SWAP1 POP SWAP2 SWAP1 POP JUMP INVALID LOG2 PUSH5 0x6970667358 0x22 SLT KECCAK256 CALLER SWAP3 PUSH17 0x697070ACC1FF6D1A6A1C7EC8C214B3A155 RETURN 0xE9 CODECOPY PUSH29 0xBB5705258DCCAA8764736F6C6343000818003300000000000000000000 "
        },
        "methodIdentifiers": {
          "addLiquidity(uint256,uint256)": "9cd441da",
          "getFee(uint256)": "fcee45f4",
          "swap(address,string,string,uint256)": "90b0b721",
          "totalSupply()": "18160ddd"
        }
      }
    }
  }
}